:1000000012C02CC02BC02AC029C028C027C026C0BF
:1000100025C024C023C022C021C020C01FC01EC0D4
:100020001DC01CC01BC011241FBECFE5D4E0DEBF25
:10003000CDBF10E0A0E6B0E0E4E8F9E002C0059032
:100040000D92A836B107D9F720E0A8E6B0E001C0CC
:100050001D92A939B207E1F74FD092C4D1CF84B332
:10006000837F84BB379A359886B1876086B987B11C
:10007000806C87B93D98089587B1827F87B9399A96
:10008000369A3699FECF089587B1837F87B987B1B5
:10009000836087B9369A3699FECF0895B99A8FB59D
:1000A00080688FBD8FB58F7B8FBD8FB581608FBD11
:1000B0008FB58D7F8FBD8EB5877F8EBD8EB58F7EC0
:1000C0008EBD8EB582608EBD8EB58A7F8EBD089541
:1000D000BB9A85B5806285BD85B58F7E85BD85B5AA
:1000E000806485BD85B5877F85BD85B58A7F85BDE3
:1000F00085B5826085BD0895CF93DF93CDB7DEB718
:1001000028970FB6F894DEBF0FBECDBF479AA7DF82
:10011000C5DFDEDF8F9AB89A9798C0980BE810E099
:100120000F2EF9E98F2EF0E09F2EF02D66246394B8
:100130000F2EF4EBCF2ED12CF02D0F2EF3E7AF2E98
:10014000F0E0BF2EF02D0F2EF4EB7F2EF02D94DF7C
:10015000349B13C080917B0090917C0024B135B119
:10016000FC01EE0FFF1FE557FF4F318320830196FF
:1001700090937C0080937B00349A86DF349B4DC043
:100180002091790030917A0084B195B1F901EE0F98
:10019000FF1FE358FF4F918380832F5F3F4F3A83C8
:1001A000298330937A002093790080917B0090918D
:1001B0007C000797B4F010927C0010927B00EBE873
:1001C000F0E080E090E021913191820F931F8E1634
:1001D0009F06C9F767E070E0ACD370936700609347
:1001E000660029813A8127303105B4F010927A00F7
:1001F00010927900EDE7F0E080E090E021913191FC
:10020000820F931FE017F107C9F767E070E091D301
:100210007093650060936400349A809166009091B9
:1002200067008C3391059CF4209164003091650047
:100230002C33310564F49798C098DBBCCABC73BCFE
:1002400060926A00109269001092680010C02091BC
:100250006A0021110CC0CD970CF493C18091640009
:1002600090916500CD978CF01BBC1ABC13BC80919B
:10027000660090916700CD970CF47BC1809164007B
:1002800090916500CD970CF08CC09798C098E09045
:100290007100F0907200F0927000E0926F00809117
:1002A000660090916700CC979E838D839093720037
:1002B000809371006092690020906000309061002E
:1002C0004090620050906300A2019101C201B1010F
:1002D00061D169837A838B839C83ED81FE81BF0129
:1002E000FF0F880B990BEDD19B01AC0169817A81DD
:1002F0008B819C8172D2D4D2B1D169837A838B8372
:100300009C8329813A8130937800209377008D81F6
:100310009E818E199F099E838D83BC01990F880B46
:10032000990BCFD16D837E838F83988720E030E057
:1003300040EC5FE3C201B10150D29B01AC016D8181
:100340007E818F81988549D2ABD288D17093760017
:100350006093750029803A80260E371E3092740013
:10036000209273009CE42916310454F0EFEFF0E082
:10037000FBBDEABDF5018081F72DF81BF3BD0AC076
:1003800024EB220E311C3BBC2ABCF5018081F72DE9
:10039000F81BF3BD8091640090916500CD970CF43B
:1003A0008AC08091660090916700CD970CF083C061
:1003B0009798C098E0906D00F0906E00F0926C00FD
:1003C000E0926B0020916400309165002C5331095C
:1003D0003E832D8330936E0020936D006092680001
:1003E0002090600030906100409062005090630067
:1003F000A2019101C201B101CDD069837A838B83BF
:100400009C83ED81FE81BF01FF0F880B990B59D1B1
:100410009B01AC0169817A818B819C81DED140D2C4
:100420001DD169837A838B839C8329813A813093A0
:100430007800209377008D819E818E199F099E837D
:100440008D83BC01990F880B990B3BD16D837E8303
:100450008F83988720E030E040EC5FE3C201B10178
:10046000BCD19B01AC016D817E818F819885B5D116
:1004700017D2F4D0709376006093750029803A808B
:10048000260E371E30927400209273009CE42916C9
:10049000310444F0C601821993099BBD8ABDEFEF78
:1004A000E3BD09C0C601821993099BBD8ABDF50150
:1004B00080818C5483BD80916900813051F5809199
:1004C000660090916700853691050CF440CE8091CE
:1004D000640090916500853691050CF438CEC09A81
:1004E000979821EE30E03BBD2ABD3EE133BD10922E
:1004F00069001092720010927100109270001092B8
:100500006F0010926E0010926D0010926C001092AD
:100510006B0080916800813009F019CE80916600EF
:1005200090916700853691050CF411CE809164009E
:1005300090916500853691050CF409CEC098979A84
:100540008EE190E09BBD8ABD91EE93BD1092680054
:1005500010927200109271001092700010926F0051
:1005600010926E0010926D0010926C0010926B0051
:10057000EECD8091640090916500CD970CF49BCFF7
:1005800017CF8091640090916500CD970CF493CFC4
:100590000FCF5058BB27AA270ED0E5C0D6D030F0D9
:1005A000DBD020F031F49F3F11F41EF4CBC00EF4E9
:1005B000E095E7FBC1C0E92FE7D080F3BA176207E7
:1005C00073078407950718F071F49EF5FFC00EF4C9
:1005D000E0950B2EBA2FA02D0B01B90190010C0153
:1005E000CA01A0011124FF27591B99F0593F50F46B
:1005F000503E68F11A16F040A22F232F342F4427C3
:10060000585FF3CF469537952795A795F0405395BA
:10061000C9F77EF41F16BA0B620B730B840BBAF08A
:100620009150A1F0FF0FBB1F661F771F881FC2F7F5
:100630000EC0BA0F621F731F841F48F48795779509
:100640006795B795F7959E3F08F0B3CF9395880FC0
:1006500008F09927EE0F97958795089504D0689430
:10066000B111B5C0089598D088F09F5790F0B92F78
:100670009927B751A0F0D1F0660F771F881F991FF7
:100680001AF0BA95C9F712C0B13081F09FD0B1E02D
:1006900008959CC0672F782F8827B85F39F0B93F3D
:1006A000CCF3869577956795B395D9F73EF49095F9
:1006B0008095709561957F4F8F4F9F4F0895E89477
:1006C00009C097FB3EF490958095709561957F4F9A
:1006D0008F4F9F4F9923A9F0F92F96E9BB27939548
:1006E000F695879577956795B795F111F8CFFAF458
:1006F000BB0F11F460FF1BC06F5F7F4F8F4F9F4F89
:1007000016C0882311F096E911C0772321F09EE8E6
:10071000872F762F05C0662371F096E8862F70E04C
:1007200060E02AF09A95660F771F881FDAF7880F26
:100730009695879597F9089597F99F6780E870E0F7
:1007400060E008959FEF80EC089500240A94161647
:10075000170618060906089500240A9412161306AF
:10076000140605060895092E0394000C11F488233D
:1007700052F0BB0F40F4BF2B11F460FF04C06F5F59
:100780007F4F8F4F9F4F089557FD9058440F551F2F
:1007900059F05F3F71F04795880F97FB991F61F003
:1007A0009F3F79F087950895121613061406551F7A
:1007B000F2CF4695F1DF08C0161617061806991FE6
:1007C000F1CF86957105610508940895E894BB27DB
:1007D00066277727CB0197F908950BD0C4CFB5DFF3
:1007E00028F0BADF18F0952309F0A6CFABCF11247B
:1007F000EECFCADFA0F3959FD1F3950F50E0551FC0
:10080000629FF001729FBB27F00DB11D639FAA2765
:10081000F00DB11DAA1F649F6627B00DA11D661FB4
:10082000829F2227B00DA11D621F739FB00DA11DD5
:10083000621F839FA00D611D221F749F3327A00D8F
:10084000611D231F849F600D211D822F762F6A2F2B
:1008500011249F5750408AF0E1F088234AF0EE0FB0
:10086000FF1FBB1F661F771F881F91505040A9F7BD
:100870009E3F510570F060CFAACF5F3FECF3983EEA
:10088000DCF3869577956795B795F795E7959F5F24
:10089000C1F7FE2B880F911D9695879597F90895BE
:1008A0007BDFE0F09E37D8F09639B8F49E3848F4F4
:1008B000672F782F8827985FF9CF8695779567956A
:1008C00093959539D0F3B62FB1706B0F711D811DC3
:1008D00020F4879577956795939502C01CC077CFD4
:1008E000882371F4772321F09850872B762F07C047
:1008F000662311F499270DC09051862B70E060E0BB
:100900002AF09A95660F771F881FDAF7880F969559
:10091000879597F908959F3F31F0915020F487957E
:1009200077956795B795880F911D9695879597F957
:10093000089597FB072E16F4009406D077FD08D093
:100940000BD007FC05D03EF4909581959F4F0895FC
:10095000709561957F4F0895AA1BBB1B51E107C09D
:10096000AA1FBB1FA617B70710F0A61BB70B881F3F
:10097000991F5A95A9F780959095BC01CD010895CE
:04098000F894FFCF19
:08098400037B473E9A029A0230
:00000001FF
