S01B000042696379636C652073706565646F6D657465722E7372656391
S113000093C0C0C106C2ABC0ACC1A9C0A8C0A7C040
S1130010A6C082C1A4C0A3C0A2C0A1C0A0C09FC0EA
S11300209EC09DC09CC06E616E00696E66000040FB
S11300307A10F35A00A0724E18090010A5D4E800F3
S113004000E87648170000E40B54020000CA9A3B0B
S1130050000000E1F5050000809698000000404291
S11300600F000000A086010000001027000000001F
S1130070E803000000006400000000000A00000023
S113008000000100000000002C76D888DC674F08CF
S113009023DFC1DFAE59E1B1B796E5E3E453C63AD5
S11300A0E651997696E8E6C28426EB898C9B62ED4C
S11300B0407C6FFCEFBC9C9F40F2BAA56FA5F49006
S11300C0055A2AF75C936B6CF9676DC11BFCE0E47D
S11300D00D47FEF520E6B500D0ED902E03009435D3
S11300E077050080841E080000204E0A000000C826
S11300F00C333333330F986E12831141EF8D211477
S1130100893BE65516CFFEE6DB18D1844B381BF746
S11301107C1D901DA4BBE424203284725E228100E5
S1130120C9F124ECA1E53D2711241FBECFE5D4E09D
S1130130DEBFCDBF10E0A0E6B0E0E4E2F8E102C02B
S113014005900D92AE3DB107D9F721E0AEEDB0E0D8
S113015001C01D92A531B207E1F725D261CB50CF82
S113016081B3837F81BB82B38C6082BB85B782609D
S113017085BF85B78E7F85BF8BB780648BBF85B7FE
S1130180886085BF85B78B7F85BF8BB780688BBF41
S1130190089585E083BF12BE89B7816089BF089541
S11301A085E08EBD1DBC1CBC089585B5876085BDEA
S11301B014BC89B7806489BF089587B38C6087BBFA
S11301C088B3837F88BB84B38F6084BB85B3807F0F
S11301D085BB0895982F92959F7095BBC298C39A3A
S11301E091E29A95F1F70000C39885BBC298C39A2F
S11301F081E28A95F1F70000C39891E29A95F1F7AC
S113020000000895982F92959F7095BBC29AC39A47
S113021091E29A95F1F70000C39885BBC29AC39AFC
S113022081E28A95F1F70000C39891E29A95F1F77B
S1130230000008958BE49DE10197F1F700C00000F0
S113024083E0C8DF83EC99E00197F1F700C0000078
S113025083E0C0DF92E49A95F1F700C083E0BADF4F
S113026083EF91E00197F1F700C0000082E0B2DF74
S113027083EF91E00197F1F700C000008CE2AADF60
S113028083EF91E00197F1F700C000008CE0A2DF5A
S113029083EF91E00197F1F700C0000081E09ADF5D
S11302A087EE93E00197F1F700C0000086E092DF4B
S11302B087EE93E00197F1F700C0000008958130C4
S11302C021F4862F806886DF0895823021F480E44B
S11302D0860F80687FDF08950F931F93CF93FC01EF
S11302E08081882351F08F01C0E08CDFCF5FF8015B
S11302F0EC0FF11D80818111F8CFCF911F910F91E7
S1130300089580E867DF80E690E0E6DF80EC62DF56
S113031080E690E0E1DF08951F920F920FB60F92EE
S113032011248F939F93AF93BF938091F700909183
S1130330F800A091F900B091FA000196A11DB11D39
S11303408093F7009093F800A093F900B093FA001B
S1130350BF91AF919F918F910F900FBE0F901F90FF
S113036018951F920F920FB60F9211248F938091BC
S1130370F6008F5F8093F6008F910F900FBE0F9061
S11303801F9018951F920F920FB60F9211242F935E
S11303903F934F935F936F937F938F939F93AF9309
S11303A0BF93EF93FF93F8941092F6009091F000AE
S11303B081E089278093F00084E28093EE0080E05E
S11303C090E004DA6093E2007093E3008093E40029
S11303D09093E50028EE33E040E050E0E9D7209325
S11303E0DE003093DF004093E0005093E100789406
S11303F0FF91EF91BF91AF919F918F917F916F91F9
S11304005F914F913F912F910F900FBE0F901F90CE
S113041018951F920F920FB60F921124CF92DF926C
S1130420EF92FF922F933F934F935F936F937F933A
S11304308F939F93AF93BF93EF93FF936CB57DB569
S113044080E090E0F9D26093F2007093F30080931F
S1130450F4009093F5001DBC1CBC2FE73EEE49E16F
S113046054E36091F2007091F3008091F400909154
S1130470F50094D36B017C016093F2007093F30058
S11304808093F4009093F5008091F100811105C0F0
S113049081E08093F10084DE71C025E831EB45E80A
S11304A05AE36091FB007091FC008091FD009091F3
S11304B0FE00C6D16093FB007093FC008093FD00A6
S11304C09093FE00A701960165E871EB85E89AE335
S11304D01FD26B017C016093010170930201809330
S11304E0030190930401BDD37BD270930001609308
S11304F0FF008091EE00843210F01092EE0020E0B4
S113050030E040E051E4C701B601FED1181634F0E2
S11305108091EE008E5E8093EE0023C020E030E0F8
S113052040EC51E4C701B601EFD1181634F08091C4
S1130530EE00875F8093EE0014C020E030E048E0D6
S113054052E4C701B601E0D1181634F08091EE00F0
S11305508A5F8093EE0005C08091EE008C5F8093EB
S1130560EE001092F7001092F8001092F900109229
S1130570FA0081E08093EF001092F600FF91EF9172
S1130580BF91AF919F918F917F916F915F914F91A7
S11305903F912F91FF90EF90DF90CF900F900FBE7F
S11305A00F901F901895479A80E090E00FD96093C0
S11305B0E6007093E7008093E8009093E90084E2FA
S11305C08093EE00FADD36DE81B3806681BB9698B7
S11305D060E081E074DE81E790E07EDE60E082E04E
S11305E06EDE8DE790E078DE2FEF89E698E121500A
S11305F080409040E1F700C0000083DE7894C9DDBC
S1130600D4DDAEDD04E20F2EFAEB8F2EF0E09F2E48
S1130610F02D10E1C5E0D1E00F2EFDECAF2EF0E09F
S1130620BF2EF02D0F2EF7EACF2EF0E0DF2EF02DA7
S11306300F2EF1EBEF2EF0E0FF2EF02D8091F7005E
S11306409091F800A091F900B091FA00853B9B4687
S1130650A105B10538F1F89454DE63E081E02FDEA2
S11306608EE890E039DE61E082E029DE88E990E0FE
S113067033DE82B3806682BB8FEB95E424E0815045
S113068090402040E1F700C0000082B38F7982BB24
S11306908FEB94ED21E0815090402040E1F700C0C1
S11306A00000E7CF8091F6008D3360F01092F600E1
S11306B010920101109202011092030110920401A0
S11306C00093EE008091EF00813079F5F894609109
S11306D0E6007091E7008091E8009091E900ACD1C8
S11306E02B013C0120E030E04AE754E46091FB0038
S11306F07091FC008091FD009091FE004FD29B010F
S1130700AC01C301B2019CD06BD1AB01BC014093DD
S1130710EA005093EB006093EC007093ED0080E0EE
S113072090E059D878941092EF008091F0008130D5
S113073009F047C0E6DD8091E1008F938091E000ED
S11307408F938091DF008F938091DE008F93DF92EF
S1130750CF921F921F93DF93CF93ADD761E081E0D7
S1130760AEDDCE01B9DD8091E5008F938091E40088
S11307708F938091E3008F938091E2008F93FF9297
S1130780EF921F921F93DF93CF9395D761E082E09E
S113079096DDCE01A1DD8DB79EB744960FB6F894D1
S11307A09EBF0FBE8DBF8091F000813009F046CF0F
S11307B096E09A95F1F700C08091F0008130C1F382
S11307C03DCF8091EE00843208F438CF809104014B
S11307D08F93809103018F93809102018F93809175
S11307E001018F939F928F921F921F93DF93CF9358
S11307F062D761E081E063DDCE016EDD8091FE00B1
S11308008F938091FD008F938091FC008F93809152
S1130810FB008F93BF92AF921F921F93DF93CF93EE
S11308204AD761E082E04BDDCE0156DD8DB79EB73D
S113083044960FB6F8949EBF0FBE8DBFFFCE50589E
S1130840BB27AA270ED070C161D130F066D120F049
S113085031F49F3F11F41EF456C10EF4E095E7FB0A
S11308604CC1E92F72D180F3BA176207730784076A
S1130870950718F071F49EF58AC10EF4E0950B2EDD
S1130880BA2FA02D0B01B90190010C01CA01A001DE
S11308901124FF27591B99F0593F50F4503E68F139
S11308A01A16F040A22F232F342F4427585FF3CF7A
S11308B0469537952795A795F0405395C9F77EF44B
S11308C01F16BA0B620B730B840BBAF09150A1F094
S11308D0FF0FBB1F661F771F881FC2F70EC0BA0F1A
S11308E0621F731F841F48F4879577956795B795A2
S11308F0F7959E3F08F0B3CF9395880F08F099279A
S1130900EE0F979587950895D4D008F481E0089563
S11309100CD00AC102D140F0F9D030F021F45F3F8D
S113092019F0EBC0511134C1EEC00FD198F39923E3
S1130930C9F35523B1F3951B550BBB27AA2762179F
S11309407307840738F09F5F5F4F220F331F441FE4
S1130950AA1FA9F333D00E2E3AF0E0E830D091501C
S11309605040E695001CCAF729D0FE2F27D0660F09
S1130970771F881FBB1F261737074807AB07B0E848
S113098009F0BB0B802DBF01FF2793585F4F2AF05E
S11309909E3F510568F0B1C0FBC05F3FECF3983E49
S11309A0DCF3869577956795B795F7959F5FC9F7BB
S11309B0880F911D9695879597F90895E1E0660F44
S11309C0771F881FBB1F621773078407BA0720F0BD
S11309D0621B730B840BBA0BEE1F88F7E095089526
S11309E0BCD088F09F5790F0B92F9927B751A0F049
S11309F0D1F0660F771F881F991F1AF0BA95C9F7AF
S1130A0012C0B13081F0C3D0B1E00895C0C0672FE7
S1130A10782F8827B85F39F0B93FCCF3869577955E
S1130A206795B395D9F73EF4909580957095619547
S1130A307F4F8F4F9F4F0895E89409C097FB3EF472
S1130A4090958095709561957F4F8F4F9F4F992317
S1130A50A9F0F92F96E9BB279395F6958795779595
S1130A606795B795F111F8CFFAF4BB0F11F460FF55
S1130A701BC06F5F7F4F8F4F9F4F16C0882311F0AD
S1130A8096E911C0772321F09EE8872F762F05C0C1
S1130A90662371F096E8862F70E060E02AF09A955C
S1130AA0660F771F881FDAF7880F9695879597F951
S1130AB00895990F0008550FAA0BE0E8FEEF1616EB
S1130AC01706E807F907C0F012161306E407F5073E
S1130AD098F0621B730B840B950B39F40A2661F0B2
S1130AE0232B242B252B21F408950A2609F4A14055
S1130AF0A6958FEF811D811D089597F99F6780E862
S1130B0070E060E008959FEF80EC089500240A945B
S1130B101616170618060906089500240A941216D4
S1130B201306140605060895092E0394000C11F407
S1130B30882352F0BB0F40F4BF2B11F460FF04C0B4
S1130B406F5F7F4F8F4F9F4F089557FD9058440F0D
S1130B50551F59F05F3F71F04795880F97FB991F18
S1130B6061F09F3F79F087950895121613061406D5
S1130B70551FF2CF4695F1DF08C016161706180662
S1130B80991FF1CF86957105610508940895E8943D
S1130B90BB2766277727CB0197F908950BD0C4CFDD
S1130BA0B5DF28F0BADF18F0952309F0A6CFABCF54
S1130BB01124EECFCADFA0F3959FD1F3950F50E037
S1130BC0551F629FF001729FBB27F00DB11D639FFB
S1130BD0AA27F00DB11DAA1F649F6627B00DA11DA1
S1130BE0661F829F2227B00DA11D621F739FB00D47
S1130BF0A11D621F839FA00D611D221F749F3327B7
S1130C00A00D611D231F849F600D211D822F762F4F
S1130C106A2F11249F5750408AF0E1F088234AF04C
S1130C20EE0FFF1FBB1F661F771F881F9150504098
S1130C30A9F79E3F510570F060CFAACF5F3FECF358
S1130C40983EDCF3869577956795B795F795E79584
S1130C509F5FC1F7FE2B880F911D9695879597F995
S1130C6008957BDFE0F09E37D8F09639B8F49E38CB
S1130C7048F4672F782F8827985FF9CF8695779562
S1130C80679593959539D0F3B62FB1706B0F711D9D
S1130C90811D20F4879577956795939502C01CC0B4
S1130CA077CF882371F4772321F09850872B762F00
S1130CB007C0662311F499270DC09051862B70E06C
S1130CC060E02AF09A95660F771F881FDAF7880F7D
S1130CD09695879597F908959F3F31F0915020F4A8
S1130CE0879577956795B795880F911D9695879504
S1130CF097F90895A0E1B0E0EFE7F6E07BC37C014B
S1130D001B016A01FC0117821682838181FF2AC3B9
S1130D109E012F5F3F4F3901F7019381F10193FD4C
S1130D20859193FF81911F01882309F417C38532AC
S1130D3039F493FD859193FF81911F01853231F43C
S1130D40B70190E07CD456016501E6CF10E0512C48
S1130D50912CFFE1F915D8F08B3279F038F4803218
S1130D6079F08332A1F4F92DF0612EC08D3261F057
S1130D70803369F4292D21602DC0392D3260932EE2
S1130D80892D8460982E2AC0E92DE86015C097FC4F
S1130D902DC020ED280F2A3088F496FE06C03AE0D4
S1130DA0139F200D1124122F19C08AE0589E200D84
S1130DB01124522EE92DE0629E2E10C08E3231F4A1
S1130DC096FCCCC2F92DF0649F2E08C08C3621F419
S1130DD0292D2068922E02C0883641F4F10193FD3A
S1130DE0859193FF81911F018111B3CF9BEB980FE4
S1130DF0933020F4992D9061805E07C09BE9980F91
S1130E00933008F059C1992D9F7E96FF16E09F7389
S1130E10992E853619F49064992E08C0863621F4EB
S1130E20392F3068932E02C01111115097FE07C05C
S1130E301C3350F444244394410E27E00BC0183073
S1130E4038F027E017E005C027E09CE3492E02C0F4
S1130E50212F412C560184E0A80EB11CF6016081BB
S1130E60718182819381042DA301FBD26C01F981EC
S1130E70FC87F0FF02C0F3FF06C091FC06C092FE9F
S1130E8006C000E205C00DE203C00BE201C000E0B1
S1130E908C858C7019F0011143C280C297FE10C07A
S1130EA04C0CFC85F4FF04C08A81813309F44A9414
S1130EB0141474F528E0241578F588E0482E2CC025
S1130EC096FC2AC0812F90E08C159D059CF03CEF88
S1130ED0C3163FEFD30674F0892D8068982E0AC09C
S1130EE0E2E0F0E0EC0FFD1FE10FF11D80818033A3
S1130EF019F411501111F4CF97FE0EC044244394F9
S1130F00410E812F90E0C816D9062CF41C1904C098
S1130F104424439401C010E097FE06C01C141D0431
S1130F2034F4C601019605C085E090E002C081E07A
S1130F3090E001110196112331F0212F30E02F5F51
S1130F403F4F820F931F252D30E08217930714F42F
S1130F50581A01C0512C892D897041F4552031F063
S1130F60B70180E290E06BD35A94F8CF002321F0CC
S1130F70B701802F90E063D393FC08C0552031F073
S1130F80B70180E390E05BD35A94F8CF97FE4AC050
S1130F904601D7FE02C0812C912CC60188199909FB
S1130FA0F301E80FF91FFE87ED8796012419310933
S1130FB0388B2F87012F10E01195019511093FEF10
S1130FC08316930621F4B7018EE290E038D3C81457
S1130FD0D9044CF08F8598898815990524F4ED85FA
S1130FE0FE85818101C080E3F1E08F1A91082D858F
S1130FF03E852F5F3F4F3E872D878016910624F054
S1131000B70190E01CD3DBCFC814D90441F49A8112
S1131010963320F4953319F43C8534FF81E3B7010A
S113102090E048C08A81813319F09C859F7E9C871B
S1131030B70190E004D3111105C094FC16C085E6F5
S113104090E015C0B7018EE290E0F9D21E5F82E015
S113105001E0080FF301E80FF11D8081B70190E072
S1131060EED2802F0113F4CFE8CF85E490E0B701EE
S1131070E6D2D7FC06C0C114D10441F4EC85E4FFE8
S113108005C0D194C194D1088DE201C08BE2B701AF
S113109090E0D5D280E32AE0C216D1042CF08F5F11
S11310A0FAE0CF1AD108F7CFB70190E0C8D2B70160
S11310B0C601C096C4D249C1833631F0833779F072
S11310C0833509F052C01FC0560132E0A30EB11C93
S11310D0F6018081898301E010E0630111C05601AB
S11310E0F2E0AF0EB11CF601C080D18096FE03C0C1
S11310F0612F70E002C06FEF7FEFC60195D28C01C3
S1131100F92DFF7713C0560122E0A20EB11CF6019F
S1131110C080D18096FE03C0612F70E002C06FEFE3
S11311207FEFC60176D28C01F92DF0689F2EF3FD76
S113113018C0852D90E00817190798F4B70180E2CC
S113114090E07DD25A94F5CFF60197FC859197FEF5
S113115081916F01B70190E072D251105A940150FD
S113116011090115110581F7F0C0843611F0893693
S113117059F5560197FE09C024E0A20EB11CF601F0
S113118060817181828193810AC0F2E0AF0EB11C4B
S1131190F60160817181072E000C880B990BF92DE3
S11311A0FF769F2E97FF09C0909580957095619565
S11311B07F4F8F4F9F4FF0689F2E2AE030E0A301AE
S11311C0A7D2C82EC6183EC0092D853721F40F7E3C
S11311D02AE030E01DC0097F8F3691F018F488357D
S11311E059F0BCC0803719F0883711F0B7C00061DE
S11311F004FF09C0046007C094FE08C0066006C06E
S113120028E030E005C020E130E002C020E132E017
S1131210560107FF09C084E0A80EB11CF6016081E5
S113122071818281938108C0F2E0AF0EB11CF60196
S11312306081718180E090E0A3016AD2C82EC61853
S11312400F77902E96FE0BC0092D0E7FC11650F419
S113125094FE0AC092FC08C0092D0E7E05C0DC2C49
S1131260092D03C0DC2C01C0D12E04FF0DC0FE01EA
S1131270EC0DF11D8081803311F4097E09C002FF59
S113128006C0D394D39404C0802F867809F0D394F5
S113129003FD10C000FF06C01C2DD51478F4150DF5
S11312A01D190CC0D51450F4B70180E290E0C7D1E9
S11312B0D394F8CFD51410F45D1801C0512C04FF59
S11312C00FC0B70180E390E0BAD102FF16C001FD60
S11312D003C088E790E002C088E590E0B7010CC045
S11312E0802F867851F001FF02C08BE201C080E2BA
S11312F007FD8DE2B70190E0A2D1C11630F4B70129
S113130080E390E09CD11150F8CFCA94F301EC0D26
S1131310F11D8081B70190E092D1C110F6CF15C0C4
S1131320F4E0F51550F584E0581A93FE1EC001113F
S113133025C02C8523FF27C006E210E0392D30712B
S1131340932EF8018491811121C0552009F4FCCC1D
S1131350B70180E290E073D15A94F7CFF701868108
S1131360978123C08FEF9FEF20C0B70180E290E008
S113137066D15A945110F9CFDACF512CB701802F8E
S113138090E05DD1D6CF0AE210E0D8CF9110805220
S1131390B70190E054D10F5F1F4FD3CF23E0251541
S11313A010F483E0C1CF512CC4CF6096E2E13EC07B
S11313B0A1E21A2EAA1BBB1BFD010DC0AA1FBB1F55
S11313C0EE1FFF1FA217B307E407F50720F0A21BC7
S11313D0B30BE40BF50B661F771F881F991F1A9434
S11313E069F760957095809590959B01AC01BD015E
S11313F0CF0108952F923F924F925F926F927F9206
S11314008F929F92AF92BF92CF92DF92EF92FF9210
S11314100F931F93CF93DF93CDB7DEB7CA1BDB0BBC
S11314200FB6F894DEBF0FBECDBF09942A88398861
S113143048885F846E847D848C849B84AA84B98468
S1131440C884DF80EE80FD800C811B81AA81B98174
S1131450CE0FD11D0FB6F894DEBF0FBECDBFED0188
S11314600895283008F027E03327DA01990F311D59
S113147087FD916000966105710539F432602E5F35
S11314803D9330E32A95E1F708959F3F30F080388B
S11314907105610509F03C5F3C5F3D93913008F0B4
S11314A08068911DDF93CF931F930F93FF92EF9268
S11314B0192F987F9695E92F96959695E90FFF2712
S11314C0E857FF4F99273327EE24FF24A701E701AC
S11314D005900894079428F4360FE71EF81E491F58
S11314E0511D660F771F881F991F0694A1F7059059
S11314F0079428F4E70EF81E491F561FC11D770FE5
S1131500881F991F661F0694A1F70590079428F475
S1131510F80E491F561FC71FD11D880F991F661F3C
S1131520771F0694A1F70590079420F4490F561FDE
S1131530C71FD81F990F661F771F881F0694A9F726
S113154084911095177041F0D695C7955795479596
S1131550F794E7941A95C1F7EEE2F0E068941590D9
S1131560159135916591959105907FE27395E118F8
S1131570F10A430B560BC90BD009C0F7E10CF11E5D
S1131580431F561FC91FD01D7EF4703311F48A9572
S1131590E6CFE894015030F0080F0AF40027021750
S11315A008F4202F2395022F7A3328F079E37D93D2
S11315B02A95E9F710C07D932A9589F606949795A4
S11315C06795379517951794E118F10A430B560B55
S11315D0C90BD00998F023957E9173957A3308F05E
S11315E070E37C932013B8F77E9170617D9330F0A3
S11315F0839571E37D9370E32A95E1F71124EF90CD
S1131600FF900F911F91CF91DF91992787FD9095BE
S11316100895FC010590615070400110D8F7809541
S113162090958E0F9F1F0895FC01615070400190AA
S11316300110D8F7809590958E0F9F1F08950F93F2
S11316401F93CF93DF93FB01238121FD03C08FEF11
S11316509FEF2CC022FF16C046815781248135811B
S11316604217530744F4A081B1819D012F5F3F4F7E
S1131670318320838C93268137812F5F3F4F3783BB
S1131680268314C08B01EC01FB010084F185E02D5D
S11316900995892BE1F6D80116968D919C9117979F
S11316A0019617969C938E931697CE01DF91CF9156
S11316B01F910F910895AEE0B0E0E0E6FBE0A8CE04
S11316C00D891E898F89988D26E02C831A830983BE
S11316D097FF02C080E090E801979E838D83AE015E
S11316E0455E5F4F698D7A8DCE01019603DB4D8196
S11316F05E8157FD0AC02F813885421753070CF4C9
S11317009A01F801E20FF31F10822E96E4E09CCEBA
S1131710FA01AA27283051F1203181F1E8946F931E
S11317206E7F6E5F7F4F8F4F9F4FAF4FB1E03ED0C4
S1131730B4E03CD0670F781F891F9A1FA11D680F62
S1131740791F8A1F911DA11D6A0F711D811D911D95
S1131750A11D20D009F468943F912AE0269F11240A
S11317603019305D3193DEF6CF010895462F47706E
S1131770405D4193B3E00FD0C9F7F6CF462F4F70C9
S1131780405D4A3318F0495D31FD4052419302D027
S1131790A9F7EACFB4E0A6959795879577956795CD
S11317A0BA95C9F700976105710508959B01AC01CD
S11317B00A2E06945795479537952795BA95C9F7F4
S11317C0620F731F841F951FA01D0895A6E1B0E04A
S11317D044E050E00AC0242F17D0252F15D000C0B4
S11317E012D0272F11C0DC01CB01FC01E199FECFFF
S11317F006C0FFBBEEBBE09A31960DB20D9241508C
S11318005040B8F70895262FE199FECF9FBB8EBBB9
S11318102DBB0FB6F894E29AE19A0FBE0196089593
S1071820F894FFCF66
S113182420202020202020202020202020202020B0
S11318340048656C6C6F2C205269746100476F6FAB
S113184464206C75636B2120285E5F5E290050520E
S113185445535320524544002121212042555454D8
S11318644F4E20212121004B6D203D20252E6C64F8
S1131874004D203D20252E6C640056203D20252E4D
S1131884316C66206B6D2F68202020200053203D8E
S111189420252E336C66206B6D202020200052
S9030000FC
